{
  "contractName": "DCP",
  "abi": [
    {
      "inputs": [
        {
          "name": "_CA",
          "type": "bytes"
        }
      ],
      "payable": false,
      "stateMutability": "nonpayable",
      "type": "constructor"
    },
    {
      "constant": true,
      "inputs": [
        {
          "name": "cert",
          "type": "bytes"
        }
      ],
      "name": "check",
      "outputs": [
        {
          "name": "",
          "type": "bool"
        }
      ],
      "payable": false,
      "stateMutability": "view",
      "type": "function"
    }
  ],
  "bytecode": "0x608060405234801561001057600080fd5b50604051610456380380610456833981018060405281019080805182019291905050508060019080519060200190610049929190610050565b50506100f5565b828054600181600116156101000203166002900490600052602060002090601f016020900481019282601f1061009157805160ff19168380011785556100bf565b828001600101855582156100bf579182015b828111156100be5782518255916020019190600101906100a3565b5b5090506100cc91906100d0565b5090565b6100f291905b808211156100ee5760008160009055506001016100d6565b5090565b90565b610352806101046000396000f300608060405260043610610041576000357c0100000000000000000000000000000000000000000000000000000000900463ffffffff168063c64b3bb514610046575b600080fd5b34801561005257600080fd5b506100ad600480360381019080803590602001908201803590602001908080601f01602080910402602001604051908101604052809392919081815260200183838082843782019150505050505091929192905050506100c7565b604051808215151515815260200191505060405180910390f35b6000606073__X509__________________________________63d4d722b3846040518263ffffffff167c01000000000000000000000000000000000000000000000000000000000281526004018080602001828103825283818151815260200191508051906020019080838360005b83811015610151578082015181840152602081019050610136565b50505050905090810190601f16801561017e5780820380516001836020036101000a031916815260200191505b509250505060006040518083038186803b15801561019b57600080fd5b505af41580156101af573d6000803e3d6000fd5b505050506040513d6000823e3d601f19601f8201168201806040525060208110156101d957600080fd5b8101908080516401000000008111156101f157600080fd5b8281019050602081018481111561020757600080fd5b815185600182028301116401000000008211171561022457600080fd5b505092919050505090506000809054906101000a900473ffffffffffffffffffffffffffffffffffffffff16604051808273ffffffffffffffffffffffffffffffffffffffff1673ffffffffffffffffffffffffffffffffffffffff166c01000000000000000000000000028152601401915050604051809103902060001916816040518082805190602001908083835b6020831015156102da57805182526020820191506020810190506020830392506102b5565b6001836020036101000a03801982511681845116808217855250505050505090500191505060405180910390206000191614151561031b5760009150610320565b600191505b509190505600a165627a7a72305820560555ef298109d5006f5f46772a3a1756ec8dc0a39e7b9226ab79cb3e4a43f60029",
  "source": "pragma solidity ^0.4.0;\n\n\nimport \"./X509.sol\";\n\ncontract DCP {\n\n    address approvedCA; // this time we only use 1 CA as its origin issuer\n    bytes domainName;\n    \n    constructor (bytes _CA) public {\n        domainName = _CA;  // the approvedCA\n    }\n    \n    function check (bytes cert) public view returns(bool) { \n        bytes memory cname = X509.getCName(cert);\n        if (keccak256(cname) != keccak256(approvedCA)) {\n            return false;\n        }\n        return true;\n    }\n\n}",
  "sourcePath": "/Users/apple/Documents/GitHub/Ethereum-IKP/webtest/contracts/DCP.sol",
  "compiler": {
    "name": "solc",
    "version": "0.4.23+commit.124ca40d.Emscripten.clang"
  },
  "schemaVersion": "2.0.0",
  "updatedAt": "2018-05-02T01:50:46.239Z"
}