{
  "contractName": "RIKP",
  "abi": [
    {
      "inputs": [],
      "payable": false,
      "stateMutability": "nonpayable",
      "type": "constructor"
    },
    {
      "constant": false,
      "inputs": [
        {
          "name": "_name",
          "type": "bytes"
        },
        {
          "name": "_pubs",
          "type": "address[]"
        },
        {
          "name": "_updates",
          "type": "address[]"
        },
        {
          "name": "_threshold",
          "type": "uint256"
        }
      ],
      "name": "caRegister",
      "outputs": [],
      "payable": true,
      "stateMutability": "payable",
      "type": "function"
    },
    {
      "constant": false,
      "inputs": [
        {
          "name": "_name",
          "type": "bytes"
        },
        {
          "name": "_payout",
          "type": "address"
        },
        {
          "name": "_pubs",
          "type": "address[]"
        },
        {
          "name": "_updates",
          "type": "address[]"
        }
      ],
      "name": "caUpdate",
      "outputs": [],
      "payable": true,
      "stateMutability": "payable",
      "type": "function"
    },
    {
      "constant": true,
      "inputs": [
        {
          "name": "_caName",
          "type": "bytes"
        }
      ],
      "name": "showBalance",
      "outputs": [
        {
          "name": "res",
          "type": "uint256"
        }
      ],
      "payable": false,
      "stateMutability": "view",
      "type": "function"
    },
    {
      "constant": false,
      "inputs": [
        {
          "name": "_caName",
          "type": "bytes"
        },
        {
          "name": "_amount",
          "type": "uint256"
        }
      ],
      "name": "withdrawl",
      "outputs": [],
      "payable": false,
      "stateMutability": "nonpayable",
      "type": "function"
    },
    {
      "constant": false,
      "inputs": [
        {
          "name": "_name",
          "type": "bytes"
        },
        {
          "name": "_chk",
          "type": "address"
        },
        {
          "name": "_updates",
          "type": "address[]"
        },
        {
          "name": "_threshold",
          "type": "uint256"
        }
      ],
      "name": "domainRegister",
      "outputs": [],
      "payable": true,
      "stateMutability": "payable",
      "type": "function"
    },
    {
      "constant": false,
      "inputs": [
        {
          "name": "_name",
          "type": "bytes"
        },
        {
          "name": "_payout",
          "type": "address"
        },
        {
          "name": "_chk",
          "type": "address"
        },
        {
          "name": "_updates",
          "type": "address[]"
        }
      ],
      "name": "domainUpdate",
      "outputs": [],
      "payable": true,
      "stateMutability": "payable",
      "type": "function"
    },
    {
      "constant": false,
      "inputs": [
        {
          "name": "_rpHash",
          "type": "bytes32"
        },
        {
          "name": "_issuer",
          "type": "bytes"
        }
      ],
      "name": "rpPurchase",
      "outputs": [],
      "payable": true,
      "stateMutability": "payable",
      "type": "function"
    },
    {
      "constant": false,
      "inputs": [
        {
          "name": "_domainName",
          "type": "bytes"
        },
        {
          "name": "_issuer",
          "type": "bytes"
        },
        {
          "name": "_validFrom",
          "type": "uint256"
        },
        {
          "name": "_validTo",
          "type": "uint256"
        },
        {
          "name": "_version",
          "type": "uint256"
        },
        {
          "name": "_reaction",
          "type": "address"
        }
      ],
      "name": "rpIssue",
      "outputs": [],
      "payable": true,
      "stateMutability": "payable",
      "type": "function"
    },
    {
      "constant": false,
      "inputs": [
        {
          "name": "com",
          "type": "bytes32"
        }
      ],
      "name": "reportCommit",
      "outputs": [],
      "payable": true,
      "stateMutability": "payable",
      "type": "function"
    },
    {
      "constant": false,
      "inputs": [
        {
          "name": "cert",
          "type": "bytes"
        },
        {
          "name": "secret",
          "type": "bytes"
        }
      ],
      "name": "reportReveal",
      "outputs": [],
      "payable": false,
      "stateMutability": "nonpayable",
      "type": "function"
    },
    {
      "constant": false,
      "inputs": [
        {
          "name": "rpHash",
          "type": "bytes32"
        },
        {
          "name": "domain",
          "type": "bytes"
        }
      ],
      "name": "terminateRP",
      "outputs": [
        {
          "name": "",
          "type": "bool"
        }
      ],
      "payable": false,
      "stateMutability": "nonpayable",
      "type": "function"
    },
    {
      "constant": false,
      "inputs": [
        {
          "name": "cert",
          "type": "bytes"
        }
      ],
      "name": "revoke",
      "outputs": [],
      "payable": true,
      "stateMutability": "payable",
      "type": "function"
    },
    {
      "constant": true,
      "inputs": [
        {
          "name": "cert",
          "type": "bytes"
        }
      ],
      "name": "isRevoked",
      "outputs": [
        {
          "name": "",
          "type": "bool"
        }
      ],
      "payable": false,
      "stateMutability": "view",
      "type": "function"
    }
  ],
  "bytecode": "0x6080604052674563918244f40000600055670de0b6b3a764000060015567d02ab486cedc0000600255670de0b6b3a7640000600355670de0b6b3a7640000600455670de0b6b3a764000060055534801561005857600080fd5b50615ba280620000696000396000f3006080604052600436106100c5576000357c0100000000000000000000000000000000000000000000000000000000900463ffffffff1680630b467b9b146100ca5780631463d12d14610126578063163443ac1461020657806316522ef0146102f25780632cdf0117146103d1578063574638e3146104d35780635d70bb391461058257806380b93901146105a657806388e3ac15146106235780638f5c2a40146106a45780639ab4c8c514610717578063a7ebdaf2146107e0578063ff9962001461084a575b600080fd5b610124600480360381019080803590602001908201803590602001908080601f01602080910402602001604051908101604052809392919081815260200183838082843782019150505050505091929192905050506108d9565b005b610204600480360381019080803590602001908201803590602001908080601f0160208091040260200160405190810160405280939291908181526020018383808284378201915050505050509192919290803590602001908201803590602001908080601f0160208091040260200160405190810160405280939291908181526020018383808284378201915050505050509192919290803590602001909291908035906020019092919080359060200190929190803573ffffffffffffffffffffffffffffffffffffffff169060200190929190505050610bb0565b005b6102f0600480360381019080803590602001908201803590602001908080601f0160208091040260200160405190810160405280939291908181526020018383808284378201915050505050509192919290803590602001908201803590602001908080602002602001604051908101604052809392919081815260200183836020028082843782019150505050505091929192908035906020019082018035906020019080806020026020016040519081016040528093929190818152602001838360200280828437820191505050505050919291929080359060200190929190505050611930565b005b6103cf600480360381019080803590602001908201803590602001908080601f0160208091040260200160405190810160405280939291908181526020018383808284378201915050505050509192919290803573ffffffffffffffffffffffffffffffffffffffff169060200190929190803573ffffffffffffffffffffffffffffffffffffffff16906020019092919080359060200190820180359060200190808060200260200160405190810160405280939291908181526020018383602002808284378201915050505050509192919290505050611b95565b005b6104d1600480360381019080803590602001908201803590602001908080601f0160208091040260200160405190810160405280939291908181526020018383808284378201915050505050509192919290803573ffffffffffffffffffffffffffffffffffffffff1690602001909291908035906020019082018035906020019080806020026020016040519081016040528093929190818152602001838360200280828437820191505050505050919291929080359060200190820180359060200190808060200260200160405190810160405280939291908181526020018383602002808284378201915050505050509192919290505050612139565b005b3480156104df57600080fd5b50610580600480360381019080803590602001908201803590602001908080601f0160208091040260200160405190810160405280939291908181526020018383808284378201915050505050509192919290803590602001908201803590602001908080601f0160208091040260200160405190810160405280939291908181526020018383808284378201915050505050509192919290505050612572565b005b6105a46004803603810190808035600019169060200190929190505050614155565b005b3480156105b257600080fd5b5061060d600480360381019080803590602001908201803590602001908080601f01602080910402602001604051908101604052809392919081815260200183838082843782019150505050505091929192905050506141c2565b6040518082815260200191505060405180910390f35b34801561062f57600080fd5b5061068a600480360381019080803590602001908201803590602001908080601f0160208091040260200160405190810160405280939291908181526020018383808284378201915050505050509192919290505050614237565b604051808215151515815260200191505060405180910390f35b3480156106b057600080fd5b50610715600480360381019080803590602001908201803590602001908080601f0160208091040260200160405190810160405280939291908181526020018383808284378201915050505050509192919290803590602001909291905050506142cb565b005b6107de600480360381019080803590602001908201803590602001908080601f0160208091040260200160405190810160405280939291908181526020018383808284378201915050505050509192919290803573ffffffffffffffffffffffffffffffffffffffff1690602001909291908035906020019082018035906020019080806020026020016040519081016040528093929190818152602001838360200280828437820191505050505050919291929080359060200190929190505050614560565b005b6108486004803603810190808035600019169060200190929190803590602001908201803590602001908080601f01602080910402602001604051908101604052809392919081815260200183838082843782019150505050505091929192905050506147a6565b005b34801561085657600080fd5b506108bf6004803603810190808035600019169060200190929190803590602001908201803590602001908080601f0160208091040260200160405190810160405280939291908181526020018383808284378201915050505050509192919290505050614804565b604051808215151515815260200191505060405180910390f35b6060600154341415156108eb57600080fd5b73__X509__________________________________63d4d722b3836040518263ffffffff167c01000000000000000000000000000000000000000000000000000000000281526004018080602001828103825283818151815260200191508051906020019080838360005b83811015610971578082015181840152602081019050610956565b50505050905090810190601f16801561099e5780820380516001836020036101000a031916815260200191505b509250505060006040518083038186803b1580156109bb57600080fd5b505af41580156109cf573d6000803e3d6000fd5b505050506040513d6000823e3d601f19601f8201168201806040525060208110156109f957600080fd5b810190808051640100000000811115610a1157600080fd5b82810190506020810184811115610a2757600080fd5b8151856001820283011164010000000082111715610a4457600080fd5b505092919050505090503373ffffffffffffffffffffffffffffffffffffffff166006826040518082805190602001908083835b602083101515610a9d5780518252602082019150602081019050602083039250610a78565b6001836020036101000a038019825116818451168082178552505050505050905001915050908152602001604051809103902060020160009054906101000a900473ffffffffffffffffffffffffffffffffffffffff1673ffffffffffffffffffffffffffffffffffffffff16141515610b1657600080fd5b6001600c6000846040518082805190602001908083835b602083101515610b525780518252602082019150602081019050602083039250610b2d565b6001836020036101000a03801982511681845116808217855250505050505090500191505060405180910390206000191660001916815260200190815260200160002060006101000a81548160ff0219169083151502179055505050565b6000610bba6157ae565b6000806002543410151515610bce57600080fd5b8989898989896040518087805190602001908083835b602083101515610c095780518252602082019150602081019050602083039250610be4565b6001836020036101000a03801982511681845116808217855250505050505090500186805190602001908083835b602083101515610c5c5780518252602082019150602081019050602083039250610c37565b6001836020036101000a0380198251168184511680821785525050505050509050018581526020018481526020018381526020018273ffffffffffffffffffffffffffffffffffffffff1673ffffffffffffffffffffffffffffffffffffffff166c01000000000000000000000000028152601401965050505050505060405180910390209350600a600085600019166000191681526020019081526020016000206000016040518082805460018160011615610100020316600290048015610d5c5780601f10610d3a576101008083540402835291820191610d5c565b820191906000526020600020905b815481529060010190602001808311610d48575b5050915050604051809103902060001916896040518082805190602001908083835b602083101515610da35780518252602082019150602081019050602083039250610d7e565b6001836020036101000a038019825116818451168082178552505050505050905001915050604051809103902060001916148015610e9a57506006896040518082805190602001908083835b602083101515610e145780518252602082019150602081019050602083039250610def565b6001836020036101000a038019825116818451168082178552505050505050905001915050908152602001604051809103902060020160009054906101000a900473ffffffffffffffffffffffffffffffffffffffff1673ffffffffffffffffffffffffffffffffffffffff163373ffffffffffffffffffffffffffffffffffffffff16145b8015610f155750600060088b6040518082805190602001908083835b602083101515610edb5780518252602082019150602081019050602083039250610eb6565b6001836020036101000a03801982511681845116808217855250505050505090500191505090815260200160405180910390206001015414155b1515610f2057600080fd5b60c0604051908101604052808b81526020018a81526020018981526020018881526020018781526020018673ffffffffffffffffffffffffffffffffffffffff168152509250600091505b60098a6040518082805190602001908083835b602083101515610fa35780518252602082019150602081019050602083039250610f7e565b6001836020036101000a038019825116818451168082178552505050505050905001915050908152602001604051809103902080549050821015611091578660098b6040518082805190602001908083835b60208310151561101a5780518252602082019150602081019050602083039250610ff5565b6001836020036101000a03801982511681845116808217855250505050505090500191505090815260200160405180910390208381548110151561105a57fe5b906000526020600020906006020160030154111561107f578180600101925050611084565b611091565b8180600101925050610f6b565b60098a6040518082805190602001908083835b6020831015156110c957805182526020820191506020810190506020830392506110a4565b6001836020036101000a0380198251168184511680821785525050505050509050019150509081526020016040518091039020805490508214156112455760098a6040518082805190602001908083835b60208310151561113f578051825260208201915060208101905060208303925061111a565b6001836020036101000a0380198251168184511680821785525050505050509050019150509081526020016040518091039020839080600181540180825580915050906001820390600052602060002090600602016000909192909190915060008201518160000190805190602001906111ba9291906157fb565b5060208201518160010190805190602001906111d79291906157fb565b5060408201518160020155606082015181600301556080820151816004015560a08201518160050160006101000a81548173ffffffffffffffffffffffffffffffffffffffff021916908373ffffffffffffffffffffffffffffffffffffffff160217905550505050611846565b60098a6040518082805190602001908083835b60208310151561127d5780518252602082019150602081019050602083039250611258565b6001836020036101000a038019825116818451168082178552505050505050905001915050908152602001604051809103902060098b6040518082805190602001908083835b6020831015156112e857805182526020820191506020810190506020830392506112c3565b6001836020036101000a0380198251168184511680821785525050505050509050019150509081526020016040518091039020600160098d6040518082805190602001908083835b6020831015156113555780518252602082019150602081019050602083039250611330565b6001836020036101000a0380198251168184511680821785525050505050509050019150509081526020016040518091039020805490500381548110151561139957fe5b906000526020600020906006020190806001815401808255809150509060018203906000526020600020906006020160009091929091909150600082018160000190805460018160011615610100020316600290046113f992919061587b565b506001820181600101908054600181600116156101000203166002900461142192919061587b565b506002820154816002015560038201548160030155600482015481600401556005820160009054906101000a900473ffffffffffffffffffffffffffffffffffffffff168160050160006101000a81548173ffffffffffffffffffffffffffffffffffffffff021916908373ffffffffffffffffffffffffffffffffffffffff160217905550505050600160098b6040518082805190602001908083835b6020831015156114e457805182526020820191506020810190506020830392506114bf565b6001836020036101000a0380198251168184511680821785525050505050509050019150509081526020016040518091039020805490500390505b8181111561171c5760098a6040518082805190602001908083835b60208310151561155f578051825260208201915060208101905060208303925061153a565b6001836020036101000a0380198251168184511680821785525050505050509050019150509081526020016040518091039020600182038154811015156115a257fe5b906000526020600020906006020160098b6040518082805190602001908083835b6020831015156115e857805182526020820191506020810190506020830392506115c3565b6001836020036101000a03801982511681845116808217855250505050505090500191505090815260200160405180910390208281548110151561162857fe5b90600052602060002090600602016000820181600001908054600181600116156101000203166002900461165d92919061587b565b506001820181600101908054600181600116156101000203166002900461168592919061587b565b506002820154816002015560038201548160030155600482015481600401556005820160009054906101000a900473ffffffffffffffffffffffffffffffffffffffff168160050160006101000a81548173ffffffffffffffffffffffffffffffffffffffff021916908373ffffffffffffffffffffffffffffffffffffffff16021790555090505080806001900391505061151f565b8260098b6040518082805190602001908083835b6020831015156117555780518252602082019150602081019050602083039250611730565b6001836020036101000a03801982511681845116808217855250505050505090500191505090815260200160405180910390208381548110151561179557fe5b906000526020600020906006020160008201518160000190805190602001906117bf9291906157fb565b5060208201518160010190805190602001906117dc9291906157fb565b5060408201518160020155606082015181600301556080820151816004015560a08201518160050160006101000a81548173ffffffffffffffffffffffffffffffffffffffff021916908373ffffffffffffffffffffffffffffffffffffffff1602179055509050505b3460078a6040518082805190602001908083835b60208310151561187f578051825260208201915060208101905060208303925061185a565b6001836020036101000a0380198251168184511680821785525050505050509050019150509081526020016040518091039020600082825401925050819055503373ffffffffffffffffffffffffffffffffffffffff166108fc600a60008760001916600019168152602001908152602001600020600101549081150290604051600060405180830381858888f19350505050158015611923573d6000803e3d6000fd5b5050505050505050505050565b60006006856040518082805190602001908083835b60208310151561196a5780518252602082019150602081019050602083039250611945565b6001836020036101000a0380198251168184511680821785525050505050509050019150509081526020016040518091039020600101541480156119b057506004543410155b15156119bb57600080fd5b60c0604051908101604052808581526020014281526020013373ffffffffffffffffffffffffffffffffffffffff168152602001848152602001838152602001828152506006856040518082805190602001908083835b602083101515611a375780518252602082019150602081019050602083039250611a12565b6001836020036101000a03801982511681845116808217855250505050505090500191505090815260200160405180910390206000820151816000019080519060200190611a869291906157fb565b506020820151816001015560408201518160020160006101000a81548173ffffffffffffffffffffffffffffffffffffffff021916908373ffffffffffffffffffffffffffffffffffffffff1602179055506060820151816003019080519060200190611af4929190615902565b506080820151816004019080519060200190611b11929190615902565b5060a08201518160050155905050346007856040518082805190602001908083835b602083101515611b585780518252602082019150602081019050602083039250611b33565b6001836020036101000a03801982511681845116808217855250505050505090500191505090815260200160405180910390208190555050505050565b6000806008866040518082805190602001908083835b602083101515611bd05780518252602082019150602081019050602083039250611bab565b6001836020036101000a038019825116818451168082178552505050505050905001915050908152602001604051809103902060060154118015611c15575060055434145b1515611c2057600080fd5b600090505b6008856040518082805190602001908083835b602083101515611c5d5780518252602082019150602081019050602083039250611c38565b6001836020036101000a038019825116818451168082178552505050505050905001915050908152602001604051809103902060050180549050811015612124573373ffffffffffffffffffffffffffffffffffffffff166008866040518082805190602001908083835b602083101515611ced5780518252602082019150602081019050602083039250611cc8565b6001836020036101000a038019825116818451168082178552505050505050905001915050908152602001604051809103902060050182815481101515611d3057fe5b9060005260206000200160009054906101000a900473ffffffffffffffffffffffffffffffffffffffff1673ffffffffffffffffffffffffffffffffffffffff16141561211757836008866040518082805190602001908083835b602083101515611db05780518252602082019150602081019050602083039250611d8b565b6001836020036101000a038019825116818451168082178552505050505050905001915050908152602001604051809103902060030160006101000a81548173ffffffffffffffffffffffffffffffffffffffff021916908373ffffffffffffffffffffffffffffffffffffffff1602179055506008856040518082805190602001908083835b602083101515611e5c5780518252602082019150602081019050602083039250611e37565b6001836020036101000a038019825116818451168082178552505050505050905001915050908152602001604051809103902060040160009054906101000a900473ffffffffffffffffffffffffffffffffffffffff1673ffffffffffffffffffffffffffffffffffffffff168373ffffffffffffffffffffffffffffffffffffffff1614151561201257826008866040518082805190602001908083835b602083101515611f205780518252602082019150602081019050602083039250611efb565b6001836020036101000a038019825116818451168082178552505050505050905001915050908152602001604051809103902060040160006101000a81548173ffffffffffffffffffffffffffffffffffffffff021916908373ffffffffffffffffffffffffffffffffffffffff16021790555060016008866040518082805190602001908083835b602083101515611fce5780518252602082019150602081019050602083039250611fa9565b6001836020036101000a0380198251168184511680821785525050505050509050019150509081526020016040518091039020600201600082825401925050819055505b816008866040518082805190602001908083835b60208310151561204b5780518252602082019150602081019050602083039250612026565b6001836020036101000a0380198251168184511680821785525050505050509050019150509081526020016040518091039020600501908051906020019061209492919061598c565b5060016008866040518082805190602001908083835b6020831015156120cf57805182526020820191506020810190506020830392506120aa565b6001836020036101000a038019825116818451168082178552505050505050905001915050908152602001604051809103902060060160008282540392505081905550612132565b8080600101915050611c25565b6000151561213157600080fd5b5b5050505050565b6000806006866040518082805190602001908083835b602083101515612174578051825260208201915060208101905060208303925061214f565b6001836020036101000a0380198251168184511680821785525050505050509050019150509081526020016040518091039020600501541180156121b9575060055434145b15156121c457600080fd5b600090505b6006856040518082805190602001908083835b60208310151561220157805182526020820191506020810190506020830392506121dc565b6001836020036101000a03801982511681845116808217855250505050505090500191505090815260200160405180910390206004018054905081101561255d573373ffffffffffffffffffffffffffffffffffffffff166006866040518082805190602001908083835b602083101515612291578051825260208201915060208101905060208303925061226c565b6001836020036101000a0380198251168184511680821785525050505050509050019150509081526020016040518091039020600401828154811015156122d457fe5b9060005260206000200160009054906101000a900473ffffffffffffffffffffffffffffffffffffffff1673ffffffffffffffffffffffffffffffffffffffff16141561255057836006866040518082805190602001908083835b602083101515612354578051825260208201915060208101905060208303925061232f565b6001836020036101000a038019825116818451168082178552505050505050905001915050908152602001604051809103902060020160006101000a81548173ffffffffffffffffffffffffffffffffffffffff021916908373ffffffffffffffffffffffffffffffffffffffff160217905550826006866040518082805190602001908083835b60208310151561240157805182526020820191506020810190506020830392506123dc565b6001836020036101000a0380198251168184511680821785525050505050509050019150509081526020016040518091039020600301908051906020019061244a92919061598c565b50816006866040518082805190602001908083835b602083101515612484578051825260208201915060208101905060208303925061245f565b6001836020036101000a038019825116818451168082178552505050505050905001915050908152602001604051809103902060040190805190602001906124cd92919061598c565b5060016006866040518082805190602001908083835b60208310151561250857805182526020820191506020810190506020830392506124e3565b6001836020036101000a03801982511681845116808217855250505050505090500191505090815260200160405180910390206005016000828254039250508190555061256b565b80806001019150506121c9565b6000151561256a57600080fd5b5b5050505050565b6060806000803373ffffffffffffffffffffffffffffffffffffffff16600b600088886040518083805190602001908083835b6020831015156125ca57805182526020820191506020810190506020830392506125a5565b6001836020036101000a03801982511681845116808217855250505050505090500182805190602001908083835b60208310151561261d57805182526020820191506020810190506020830392506125f8565b6001836020036101000a0380198251168184511680821785525050505050509050019250505060405180910390206000191660001916815260200190815260200160002060009054906101000a900473ffffffffffffffffffffffffffffffffffffffff1673ffffffffffffffffffffffffffffffffffffffff161415156126a457600080fd5b73__X509__________________________________6354c3e215876040518263ffffffff167c01000000000000000000000000000000000000000000000000000000000281526004018080602001828103825283818151815260200191508051906020019080838360005b8381101561272a57808201518184015260208101905061270f565b50505050905090810190601f1680156127575780820380516001836020036101000a031916815260200191505b509250505060006040518083038186803b15801561277457600080fd5b505af4158015612788573d6000803e3d6000fd5b505050506040513d6000823e3d601f19601f8201168201806040525060208110156127b257600080fd5b8101908080516401000000008111156127ca57600080fd5b828101905060208101848111156127e057600080fd5b81518560018202830111640100000000821117156127fd57600080fd5b505092919050505093505b60006009856040518082805190602001908083835b602083101515612842578051825260208201915060208101905060208303925061281d565b6001836020036101000a03801982511681845116808217855250505050505090500191505090815260200160405180910390208054905011156131ac57426009856040518082805190602001908083835b6020831015156128b85780518252602082019150602081019050602083039250612893565b6001836020036101000a038019825116818451168082178552505050505050905001915050908152602001604051809103902060016009876040518082805190602001908083835b6020831015156129255780518252602082019150602081019050602083039250612900565b6001836020036101000a0380198251168184511680821785525050505050509050019150509081526020016040518091039020805490500381548110151561296957fe5b9060005260206000209060060201600301541080612aef57506008846040518082805190602001908083835b6020831015156129ba5780518252602082019150602081019050602083039250612995565b6001836020036101000a0380198251168184511680821785525050505050509050019150509081526020016040518091039020600201546009856040518082805190602001908083835b602083101515612a295780518252602082019150602081019050602083039250612a04565b6001836020036101000a038019825116818451168082178552505050505050905001915050908152602001604051809103902060016009876040518082805190602001908083835b602083101515612a965780518252602082019150602081019050602083039250612a71565b6001836020036101000a03801982511681845116808217855250505050505090500191505090815260200160405180910390208054905003815481101515612ada57fe5b90600052602060002090600602016004015414155b156131ab576009846040518082805190602001908083835b602083101515612b2c5780518252602082019150602081019050602083039250612b07565b6001836020036101000a038019825116818451168082178552505050505050905001915050908152602001604051809103902060016009866040518082805190602001908083835b602083101515612b995780518252602082019150602081019050602083039250612b74565b6001836020036101000a03801982511681845116808217855250505050505090500191505090815260200160405180910390208054905003815481101515612bdd57fe5b906000526020600020906006020160050160009054906101000a900473ffffffffffffffffffffffffffffffffffffffff1673ffffffffffffffffffffffffffffffffffffffff1663c8db233e60025460066009886040518082805190602001908083835b602083101515612c675780518252602082019150602081019050602083039250612c42565b6001836020036101000a0380198251168184511680821785525050505050509050019150509081526020016040518091039020600160098a6040518082805190602001908083835b602083101515612cd45780518252602082019150602081019050602083039250612caf565b6001836020036101000a03801982511681845116808217855250505050505090500191505090815260200160405180910390208054905003815481101515612d1857fe5b90600052602060002090600602016001016040518082805460018160011615610100020316600290048015612d845780601f10612d62576101008083540402835291820191612d84565b820191906000526020600020905b815481529060010190602001808311612d70575b5050915050908152602001604051809103902060020160009054906101000a900473ffffffffffffffffffffffffffffffffffffffff166040518363ffffffff167c0100000000000000000000000000000000000000000000000000000000028152600401808273ffffffffffffffffffffffffffffffffffffffff1673ffffffffffffffffffffffffffffffffffffffff1681526020019150506000604051808303818588803b158015612e3857600080fd5b505af1158015612e4c573d6000803e3d6000fd5b505050505060025460076009866040518082805190602001908083835b602083101515612e8e5780518252602082019150602081019050602083039250612e69565b6001836020036101000a038019825116818451168082178552505050505050905001915050908152602001604051809103902060016009886040518082805190602001908083835b602083101515612efb5780518252602082019150602081019050602083039250612ed6565b6001836020036101000a03801982511681845116808217855250505050505090500191505090815260200160405180910390208054905003815481101515612f3f57fe5b90600052602060002090600602016001016040518082805460018160011615610100020316600290048015612fab5780601f10612f89576101008083540402835291820191612fab565b820191906000526020600020905b815481529060010190602001808311612f97575b50509150509081526020016040518091039020600082825403925050819055506009846040518082805190602001908083835b6020831015156130035780518252602082019150602081019050602083039250612fde565b6001836020036101000a038019825116818451168082178552505050505050905001915050908152602001604051809103902060016009866040518082805190602001908083835b602083101515613070578051825260208201915060208101905060208303925061304b565b6001836020036101000a038019825116818451168082178552505050505050905001915050908152602001604051809103902080549050038154811015156130b457fe5b9060005260206000209060060201600080820160006130d39190615a16565b6001820160006130e39190615a16565b6002820160009055600382016000905560048201600090556005820160006101000a81549073ffffffffffffffffffffffffffffffffffffffff0219169055505060016009856040518082805190602001908083835b60208310151561315e5780518252602082019150602081019050602083039250613139565b6001836020036101000a0380198251168184511680821785525050505050509050019150509081526020016040518091039020818180549050039150816131a59190615a5e565b50612808565b5b60006009856040518082805190602001908083835b6020831015156131e657805182526020820191506020810190506020830392506131c1565b6001836020036101000a03801982511681845116808217855250505050505090500191505090815260200160405180910390208054905014806132b05750600c6000876040518082805190602001908083835b60208310151561325e5780518252602082019150602081019050602083039250613239565b6001836020036101000a03801982511681845116808217855250505050505090500191505060405180910390206000191660001916815260200190815260200160002060009054906101000a900460ff165b15613303573373ffffffffffffffffffffffffffffffffffffffff166108fc6000549081150290604051600060405180830381858888f193505050501580156132fd573d6000803e3d6000fd5b5061414d565b6008846040518082805190602001908083835b60208310151561333b5780518252602082019150602081019050602083039250613316565b6001836020036101000a038019825116818451168082178552505050505050905001915050908152602001604051809103902060040160009054906101000a900473ffffffffffffffffffffffffffffffffffffffff1673ffffffffffffffffffffffffffffffffffffffff1663c64b3bb5876040518263ffffffff167c01000000000000000000000000000000000000000000000000000000000281526004018080602001828103825283818151815260200191508051906020019080838360005b838110156134195780820151818401526020810190506133fe565b50505050905090810190601f1680156134465780820380516001836020036101000a031916815260200191505b5092505050602060405180830381600087803b15801561346557600080fd5b505af1158015613479573d6000803e3d6000fd5b505050506040513d602081101561348f57600080fd5b8101908080519060200190929190505050156134aa5761414d565b73__X509__________________________________63d4d722b3876040518263ffffffff167c01000000000000000000000000000000000000000000000000000000000281526004018080602001828103825283818151815260200191508051906020019080838360005b83811015613530578082015181840152602081019050613515565b50505050905090810190601f16801561355d5780820380516001836020036101000a031916815260200191505b509250505060006040518083038186803b15801561357a57600080fd5b505af415801561358e573d6000803e3d6000fd5b505050506040513d6000823e3d601f19601f8201168201806040525060208110156135b857600080fd5b8101908080516401000000008111156135d057600080fd5b828101905060208101848111156135e657600080fd5b815185600182028301116401000000008211171561360357600080fd5b505092919050505092506001915060006006846040518082805190602001908083835b60208310151561364b5780518252602082019150602081019050602083039250613626565b6001836020036101000a038019825116818451168082178552505050505050905001915050908152602001604051809103902060010154141561368d57600091505b6009846040518082805190602001908083835b6020831015156136c557805182526020820191506020810190506020830392506136a0565b6001836020036101000a038019825116818451168082178552505050505050905001915050908152602001604051809103902060016009866040518082805190602001908083835b602083101515613732578051825260208201915060208101905060208303925061370d565b6001836020036101000a0380198251168184511680821785525050505050509050019150509081526020016040518091039020805490500381548110151561377657fe5b9060005260206000209060060201600201546009856040518082805190602001908083835b6020831015156137c0578051825260208201915060208101905060208303925061379b565b6001836020036101000a038019825116818451168082178552505050505050905001915050908152602001604051809103902060016009876040518082805190602001908083835b60208310151561382d5780518252602082019150602081019050602083039250613808565b6001836020036101000a0380198251168184511680821785525050505050509050019150509081526020016040518091039020805490500381548110151561387157fe5b906000526020600020906006020160030154036064426009876040518082805190602001908083835b6020831015156138bf578051825260208201915060208101905060208303925061389a565b6001836020036101000a038019825116818451168082178552505050505050905001915050908152602001604051809103902060016009896040518082805190602001908083835b60208310151561392c5780518252602082019150602081019050602083039250613907565b6001836020036101000a0380198251168184511680821785525050505050509050019150509081526020016040518091039020805490500381548110151561397057fe5b906000526020600020906006020160030154030281151561398d57fe5b0490506009846040518082805190602001908083835b6020831015156139c857805182526020820191506020810190506020830392506139a3565b6001836020036101000a038019825116818451168082178552505050505050905001915050908152602001604051809103902060016009866040518082805190602001908083835b602083101515613a355780518252602082019150602081019050602083039250613a10565b6001836020036101000a03801982511681845116808217855250505050505090500191505090815260200160405180910390208054905003815481101515613a7957fe5b906000526020600020906006020160050160009054906101000a900473ffffffffffffffffffffffffffffffffffffffff1673ffffffffffffffffffffffffffffffffffffffff1663e1017a9d600254336008886040518082805190602001908083835b602083101515613b025780518252602082019150602081019050602083039250613add565b6001836020036101000a038019825116818451168082178552505050505050905001915050908152602001604051809103902060030160009054906101000a900473ffffffffffffffffffffffffffffffffffffffff16600660098a6040518082805190602001908083835b602083101515613b935780518252602082019150602081019050602083039250613b6e565b6001836020036101000a0380198251168184511680821785525050505050509050019150509081526020016040518091039020600160098c6040518082805190602001908083835b602083101515613c005780518252602082019150602081019050602083039250613bdb565b6001836020036101000a03801982511681845116808217855250505050505090500191505090815260200160405180910390208054905003815481101515613c4457fe5b90600052602060002090600602016001016040518082805460018160011615610100020316600290048015613cb05780601f10613c8e576101008083540402835291820191613cb0565b820191906000526020600020905b815481529060010190602001808311613c9c575b5050915050908152602001604051809103902060020160009054906101000a900473ffffffffffffffffffffffffffffffffffffffff1687876040518763ffffffff167c0100000000000000000000000000000000000000000000000000000000028152600401808673ffffffffffffffffffffffffffffffffffffffff1673ffffffffffffffffffffffffffffffffffffffff1681526020018573ffffffffffffffffffffffffffffffffffffffff1673ffffffffffffffffffffffffffffffffffffffff1681526020018473ffffffffffffffffffffffffffffffffffffffff1673ffffffffffffffffffffffffffffffffffffffff16815260200183151515158152602001828152602001955050505050506000604051808303818588803b158015613dde57600080fd5b505af1158015613df2573d6000803e3d6000fd5b505050505060025460076009866040518082805190602001908083835b602083101515613e345780518252602082019150602081019050602083039250613e0f565b6001836020036101000a038019825116818451168082178552505050505050905001915050908152602001604051809103902060016009886040518082805190602001908083835b602083101515613ea15780518252602082019150602081019050602083039250613e7c565b6001836020036101000a03801982511681845116808217855250505050505090500191505090815260200160405180910390208054905003815481101515613ee557fe5b90600052602060002090600602016001016040518082805460018160011615610100020316600290048015613f515780601f10613f2f576101008083540402835291820191613f51565b820191906000526020600020905b815481529060010190602001808311613f3d575b50509150509081526020016040518091039020600082825403925050819055506009846040518082805190602001908083835b602083101515613fa95780518252602082019150602081019050602083039250613f84565b6001836020036101000a038019825116818451168082178552505050505050905001915050908152602001604051809103902060016009866040518082805190602001908083835b6020831015156140165780518252602082019150602081019050602083039250613ff1565b6001836020036101000a0380198251168184511680821785525050505050509050019150509081526020016040518091039020805490500381548110151561405a57fe5b9060005260206000209060060201600080820160006140799190615a16565b6001820160006140899190615a16565b6002820160009055600382016000905560048201600090556005820160006101000a81549073ffffffffffffffffffffffffffffffffffffffff0219169055505060016009856040518082805190602001908083835b60208310151561410457805182526020820191506020810190506020830392506140df565b6001836020036101000a03801982511681845116808217855250505050505090500191505090815260200160405180910390208181805490500391508161414b9190615a5e565b505b505050505050565b6000543414151561416557600080fd5b33600b6000836000191660001916815260200190815260200160002060006101000a81548173ffffffffffffffffffffffffffffffffffffffff021916908373ffffffffffffffffffffffffffffffffffffffff16021790555050565b60006007826040518082805190602001908083835b6020831015156141fc57805182526020820191506020810190506020830392506141d7565b6001836020036101000a0380198251168184511680821785525050505050509050019150509081526020016040518091039020549050919050565b6000600c6000836040518082805190602001908083835b602083101515614273578051825260208201915060208101905060208303925061424e565b6001836020036101000a03801982511681845116808217855250505050505090500191505060405180910390206000191660001916815260200190815260200160002060009054906101000a900460ff169050919050565b3373ffffffffffffffffffffffffffffffffffffffff166006836040518082805190602001908083835b60208310151561431a57805182526020820191506020810190506020830392506142f5565b6001836020036101000a038019825116818451168082178552505050505050905001915050908152602001604051809103902060020160009054906101000a900473ffffffffffffffffffffffffffffffffffffffff1673ffffffffffffffffffffffffffffffffffffffff161480156144035750806004546007846040518082805190602001908083835b6020831015156143cb57805182526020820191506020810190506020830392506143a6565b6001836020036101000a0380198251168184511680821785525050505050509050019150509081526020016040518091039020540310155b151561440e57600080fd5b6006826040518082805190602001908083835b6020831015156144465780518252602082019150602081019050602083039250614421565b6001836020036101000a038019825116818451168082178552505050505050905001915050908152602001604051809103902060020160009054906101000a900473ffffffffffffffffffffffffffffffffffffffff1673ffffffffffffffffffffffffffffffffffffffff166108fc829081150290604051600060405180830381858888f193505050501580156144e2573d6000803e3d6000fd5b50806007836040518082805190602001908083835b60208310151561451c57805182526020820191506020810190506020830392506144f7565b6001836020036101000a0380198251168184511680821785525050505050509050019150509081526020016040518091039020600082825403925050819055505050565b60006008856040518082805190602001908083835b60208310151561459a5780518252602082019150602081019050602083039250614575565b6001836020036101000a0380198251168184511680821785525050505050509050019150509081526020016040518091039020600101541480156145e057506003543410155b15156145eb57600080fd5b60e060405190810160405280858152602001428152602001600181526020013373ffffffffffffffffffffffffffffffffffffffff1681526020018473ffffffffffffffffffffffffffffffffffffffff168152602001838152602001828152506008856040518082805190602001908083835b602083101515614684578051825260208201915060208101905060208303925061465f565b6001836020036101000a038019825116818451168082178552505050505050905001915050908152602001604051809103902060008201518160000190805190602001906146d39291906157fb565b50602082015181600101556040820151816002015560608201518160030160006101000a81548173ffffffffffffffffffffffffffffffffffffffff021916908373ffffffffffffffffffffffffffffffffffffffff16021790555060808201518160040160006101000a81548173ffffffffffffffffffffffffffffffffffffffff021916908373ffffffffffffffffffffffffffffffffffffffff16021790555060a0820151816005019080519060200190614792929190615902565b5060c0820151816006015590505050505050565b604080519081016040528082815260200134815250600a6000846000191660001916815260200190815260200160002060008201518160000190805190602001906147f29291906157fb565b50602082015181600101559050505050565b60008060008060003373ffffffffffffffffffffffffffffffffffffffff166008876040518082805190602001908083835b60208310151561485b5780518252602082019150602081019050602083039250614836565b6001836020036101000a038019825116818451168082178552505050505050905001915050908152602001604051809103902060030160009054906101000a900473ffffffffffffffffffffffffffffffffffffffff1673ffffffffffffffffffffffffffffffffffffffff161415156148d457600080fd5b600093505b6009866040518082805190602001908083835b60208310151561491157805182526020820191506020810190506020830392506148ec565b6001836020036101000a0380198251168184511680821785525050505050509050019150509081526020016040518091039020805490508410156152db576009866040518082805190602001908083835b6020831015156149875780518252602082019150602081019050602083039250614962565b6001836020036101000a0380198251168184511680821785525050505050509050019150509081526020016040518091039020848154811015156149c757fe5b90600052602060002090600602016000016009876040518082805190602001908083835b602083101515614a1057805182526020820191506020810190506020830392506149eb565b6001836020036101000a038019825116818451168082178552505050505050905001915050908152602001604051809103902085815481101515614a5057fe5b90600052602060002090600602016001016009886040518082805190602001908083835b602083101515614a995780518252602082019150602081019050602083039250614a74565b6001836020036101000a038019825116818451168082178552505050505050905001915050908152602001604051809103902086815481101515614ad957fe5b9060005260206000209060060201600201546009896040518082805190602001908083835b602083101515614b235780518252602082019150602081019050602083039250614afe565b6001836020036101000a038019825116818451168082178552505050505050905001915050908152602001604051809103902087815481101515614b6357fe5b90600052602060002090600602016003015460098a6040518082805190602001908083835b602083101515614bad5780518252602082019150602081019050602083039250614b88565b6001836020036101000a038019825116818451168082178552505050505050905001915050908152602001604051809103902088815481101515614bed57fe5b90600052602060002090600602016004015460098b6040518082805190602001908083835b602083101515614c375780518252602082019150602081019050602083039250614c12565b6001836020036101000a038019825116818451168082178552505050505050905001915050908152602001604051809103902089815481101515614c7757fe5b906000526020600020906006020160050160009054906101000a900473ffffffffffffffffffffffffffffffffffffffff166040518087805460018160011615610100020316600290048015614d045780601f10614ce2576101008083540402835291820191614d04565b820191906000526020600020905b815481529060010190602001808311614cf0575b505086805460018160011615610100020316600290048015614d5d5780601f10614d3b576101008083540402835291820191614d5d565b820191906000526020600020905b815481529060010190602001808311614d49575b50508581526020018481526020018381526020018273ffffffffffffffffffffffffffffffffffffffff1673ffffffffffffffffffffffffffffffffffffffff166c010000000000000000000000000281526014019650505050505050604051809103902092508660001916836000191614156152ce576009866040518082805190602001908083835b602083101515614e0c5780518252602082019150602081019050602083039250614de7565b6001836020036101000a038019825116818451168082178552505050505050905001915050908152602001604051809103902084815481101515614e4c57fe5b9060005260206000209060060201600201546009876040518082805190602001908083835b602083101515614e965780518252602082019150602081019050602083039250614e71565b6001836020036101000a038019825116818451168082178552505050505050905001915050908152602001604051809103902085815481101515614ed657fe5b906000526020600020906006020160030154036064426009896040518082805190602001908083835b602083101515614f245780518252602082019150602081019050602083039250614eff565b6001836020036101000a038019825116818451168082178552505050505050905001915050908152602001604051809103902087815481101515614f6457fe5b9060005260206000209060060201600301540302811515614f8157fe5b0491506009866040518082805190602001908083835b602083101515614fbc5780518252602082019150602081019050602083039250614f97565b6001836020036101000a038019825116818451168082178552505050505050905001915050908152602001604051809103902084815481101515614ffc57fe5b906000526020600020906006020160050160009054906101000a900473ffffffffffffffffffffffffffffffffffffffff1673ffffffffffffffffffffffffffffffffffffffff1663409bc7be6002546008896040518082805190602001908083835b602083101515615084578051825260208201915060208101905060208303925061505f565b6001836020036101000a038019825116818451168082178552505050505050905001915050908152602001604051809103902060030160009054906101000a900473ffffffffffffffffffffffffffffffffffffffff16600660098b6040518082805190602001908083835b60208310151561511557805182526020820191506020810190506020830392506150f0565b6001836020036101000a03801982511681845116808217855250505050505090500191505090815260200160405180910390208981548110151561515557fe5b906000526020600020906006020160010160405180828054600181600116156101000203166002900480156151c15780601f1061519f5761010080835404028352918201916151c1565b820191906000526020600020905b8154815290600101906020018083116151ad575b5050915050908152602001604051809103902060020160009054906101000a900473ffffffffffffffffffffffffffffffffffffffff16866040518563ffffffff167c0100000000000000000000000000000000000000000000000000000000028152600401808473ffffffffffffffffffffffffffffffffffffffff1673ffffffffffffffffffffffffffffffffffffffff1681526020018373ffffffffffffffffffffffffffffffffffffffff1673ffffffffffffffffffffffffffffffffffffffff16815260200182815260200193505050506000604051808303818588803b1580156152b057600080fd5b505af11580156152c4573d6000803e3d6000fd5b50505050506152db565b83806001019450506148d9565b6009866040518082805190602001908083835b60208310151561531357805182526020820191506020810190506020830392506152ee565b6001836020036101000a038019825116818451168082178552505050505050905001915050908152602001604051809103902080549050841415151561535857600080fd5b8390505b60016009876040518082805190602001908083835b6020831015156153965780518252602082019150602081019050602083039250615371565b6001836020036101000a038019825116818451168082178552505050505050905001915050908152602001604051809103902080549050038110156155c9576009866040518082805190602001908083835b60208310151561540d57805182526020820191506020810190506020830392506153e8565b6001836020036101000a03801982511681845116808217855250505050505090500191505090815260200160405180910390206001820181548110151561545057fe5b90600052602060002090600602016009876040518082805190602001908083835b6020831015156154965780518252602082019150602081019050602083039250615471565b6001836020036101000a0380198251168184511680821785525050505050509050019150509081526020016040518091039020828154811015156154d657fe5b90600052602060002090600602016000820181600001908054600181600116156101000203166002900461550b92919061587b565b506001820181600101908054600181600116156101000203166002900461553392919061587b565b506002820154816002015560038201548160030155600482015481600401556005820160009054906101000a900473ffffffffffffffffffffffffffffffffffffffff168160050160006101000a81548173ffffffffffffffffffffffffffffffffffffffff021916908373ffffffffffffffffffffffffffffffffffffffff160217905550905050808060010191505061535c565b6009866040518082805190602001908083835b60208310151561560157805182526020820191506020810190506020830392506155dc565b6001836020036101000a038019825116818451168082178552505050505050905001915050908152602001604051809103902060016009886040518082805190602001908083835b60208310151561566e5780518252602082019150602081019050602083039250615649565b6001836020036101000a038019825116818451168082178552505050505050905001915050908152602001604051809103902080549050038154811015156156b257fe5b9060005260206000209060060201600080820160006156d19190615a16565b6001820160006156e19190615a16565b6002820160009055600382016000905560048201600090556005820160006101000a81549073ffffffffffffffffffffffffffffffffffffffff0219169055505060016009876040518082805190602001908083835b60208310151561575c5780518252602082019150602081019050602083039250615737565b6001836020036101000a0380198251168184511680821785525050505050509050019150509081526020016040518091039020818180549050039150816157a39190615a5e565b505050505092915050565b60c0604051908101604052806060815260200160608152602001600081526020016000815260200160008152602001600073ffffffffffffffffffffffffffffffffffffffff1681525090565b828054600181600116156101000203166002900490600052602060002090601f016020900481019282601f1061583c57805160ff191683800117855561586a565b8280016001018555821561586a579182015b8281111561586957825182559160200191906001019061584e565b5b5090506158779190615a90565b5090565b828054600181600116156101000203166002900490600052602060002090601f016020900481019282601f106158b457805485556158f1565b828001600101855582156158f157600052602060002091601f016020900482015b828111156158f05782548255916001019190600101906158d5565b5b5090506158fe9190615a90565b5090565b82805482825590600052602060002090810192821561597b579160200282015b8281111561597a5782518260006101000a81548173ffffffffffffffffffffffffffffffffffffffff021916908373ffffffffffffffffffffffffffffffffffffffff16021790555091602001919060010190615922565b5b5090506159889190615ab5565b5090565b828054828255906000526020600020908101928215615a05579160200282015b82811115615a045782518260006101000a81548173ffffffffffffffffffffffffffffffffffffffff021916908373ffffffffffffffffffffffffffffffffffffffff160217905550916020019190600101906159ac565b5b509050615a129190615ab5565b5090565b50805460018160011615610100020316600290046000825580601f10615a3c5750615a5b565b601f016020900490600052602060002090810190615a5a9190615a90565b5b50565b815481835581811115615a8b57600602816006028360005260206000209182019101615a8a9190615af8565b5b505050565b615ab291905b80821115615aae576000816000905550600101615a96565b5090565b90565b615af591905b80821115615af157600081816101000a81549073ffffffffffffffffffffffffffffffffffffffff021916905550600101615abb565b5090565b90565b615b7391905b80821115615b6f5760008082016000615b179190615a16565b600182016000615b279190615a16565b6002820160009055600382016000905560048201600090556005820160006101000a81549073ffffffffffffffffffffffffffffffffffffffff021916905550600601615afe565b5090565b905600a165627a7a72305820b5ea157a8248a81ca6289e85287f0a01ff9bfdcf672c2cbf49de9f5987e7ce530029",
  "source": "pragma solidity ^0.4.19;\n\n\nimport \"./X509.sol\";\n\ncontract RIKP {\n\n    using BytesLib for bytes;\n\n    struct CA {\n        bytes name; // identify CA\n        uint validFrom; // specify start period of information validity\n        address payout; // authenticate and receive payments to CA\n        address[] pubKeys; // list of CAs public keys\n        address[] updateAddrs; // (default empty) authorize updates to this information\n        uint updateThold; // (default 1) threshold of payout/update addrs. for updates\n    }\n\n    struct DCP {\n        bytes domainName; // identify domain for which the policy is active\n        uint validFrom; // specify start period of DCPs validity\n        uint version; // identify version of this domains DCP\n        address payout; // authenticate and receive payments for domain\n        DCPChecker checker; // address of the DCPs check contract\n        address[] updateAddrs; // (default empty) authorize DCP updates\n        uint updateThold; // (default 1) threshold of payout/update addrs. for DCP updates\n    }\n\n    struct RP {\n        bytes domainName; // identify domain for which the RP is active\n        bytes issuer; // CA who issued the RP\n        uint validFrom; // specify start period of RPs validity\n        uint validTo; // specify end period of RPs validity\n        uint version; // version of domains DCP used to trigger RP\n        RPReaction reaction; // address of the RPs reaction contract\n    }\n\n    struct RPEscrow {\n        bytes issuer;\n        uint escrow;\n    }\n\n    struct CertEscrow {\n        bytes issuer;\n        uint escrow;\n    }\n\n    uint m = 5 ether; // report fee\n    uint revokeFee = 1 ether; // revoke fee\n    uint rpEscrowLimit = 15 ether; // RP escrow\n    uint dregisterFee = 1 ether; // Domain register fee\n    uint cregisterFee = 1 ether; // CA register fee\n    uint updateFee = 1 ether; // update fee\n\n    /* address private escrow; */\n    mapping(bytes => CA) private cas;\n    mapping(bytes => uint) private caBalances;\n    /* mapping(address => uint) private domainBalances; */\n    mapping(bytes => DCP) private dcps;\n    mapping(bytes => RP[]) private rps;\n    /* CA[] public cas; */\n    mapping(bytes32 => RPEscrow) private rpEscrows;\n    /* mapping(bytes32 => CertEscrow) private certEscrows; */\n    mapping(bytes32 => address) private coms;\n    mapping (bytes32 => bool) private crl;\n    \n\n    constructor () public {\n        /* escrow = msg.sender; */\n    }\n\n    function caRegister (bytes _name, address[] _pubs, address[] _updates, uint _threshold) public payable {\n        require(cas[_name].validFrom == 0 && msg.value >= cregisterFee);\n        cas[_name] = CA({\n            name: _name,\n            validFrom: now,\n            payout: msg.sender,\n            pubKeys: _pubs,\n            updateAddrs: _updates,\n            updateThold: _threshold\n        });\n        caBalances[_name] = msg.value;\n    }\n\n    // function domainRegister (int s) public pure returns (int) {\n        // require (msg.value == 50 wei);\n        // return s+1;\n    // }\n\n    function caUpdate (bytes _name, address _payout, address[] _pubs, address[] _updates) public payable {\n        require(cas[_name].updateThold > 0 && msg.value == updateFee);\n        for (uint i = 0; i < cas[_name].updateAddrs.length; i++) {\n            if (cas[_name].updateAddrs[i] == msg.sender) {\n                cas[_name].payout = _payout;\n                cas[_name].pubKeys = _pubs;\n                cas[_name].updateAddrs = _updates;\n                cas[_name].updateThold -= 1;\n                return;\n            }\n        }\n        require (false);\n    }\n\n    function showBalance (bytes _caName) public view returns (uint res) {\n        return caBalances[_caName];\n    }\n    \n    function withdrawl (bytes _caName, uint _amount) public {\n        require(cas[_caName].payout == msg.sender && caBalances[_caName] - cregisterFee >= _amount);\n        cas[_caName].payout.transfer(_amount);\n        caBalances[_caName] -= _amount;\n    }\n    \n    function domainRegister (bytes _name, address _chk, address[] _updates, uint _threshold) public payable {\n        require(dcps[_name].validFrom == 0 && msg.value >= dregisterFee);\n        dcps[_name] = DCP({\n            domainName: _name,\n            validFrom: now,\n            version: 1,\n            payout: msg.sender,\n            checker: DCPChecker(_chk),\n            updateAddrs: _updates,\n            updateThold: _threshold\n        });\n    }\n\n    function domainUpdate (bytes _name, address _payout, address _chk, address[] _updates) public payable {\n        require(dcps[_name].updateThold > 0 && msg.value == updateFee);\n        for (uint i = 0; i < dcps[_name].updateAddrs.length; i++) {\n            if (dcps[_name].updateAddrs[i] == msg.sender) {\n                dcps[_name].payout = _payout;\n                if (_chk != address(dcps[_name].checker)) {\n                    dcps[_name].checker = DCPChecker(_chk);\n                    dcps[_name].version += 1;\n                }\n                dcps[_name].updateAddrs = _updates;\n                dcps[_name].updateThold -= 1;\n                return;\n            }\n        }\n        require (false);\n    }\n\n    function rpPurchase (bytes32 _rpHash, bytes _issuer) public payable {\n        rpEscrows[_rpHash] = RPEscrow({issuer:_issuer, escrow:msg.value});\n    }\n\n    function rpIssue (bytes _domainName, bytes _issuer, uint _validFrom, uint _validTo, uint _version, address _reaction) public payable {\n        require(msg.value >= rpEscrowLimit);\n        bytes32 rpHash = keccak256(_domainName, _issuer, _validFrom,\n                                    _validTo, _version, _reaction);\n        require((keccak256(_issuer) == keccak256(rpEscrows[rpHash].issuer)) &&\n                (msg.sender == cas[_issuer].payout) && dcps[_domainName].validFrom != 0);\n        RP memory rp = RP({domainName: _domainName,\n                    issuer: _issuer,\n                    validFrom: _validFrom,\n                    validTo: _validTo,\n                    version: _version,\n                    reaction: RPReaction(_reaction)});\n        uint i;\n        for (i = 0; i < rps[_domainName].length; i++) {\n            if (rps[_domainName][i].validTo > _validTo) i++;\n            else break;\n        }\n        if (i == rps[_domainName].length) {\n            rps[_domainName].push(rp);\n        } else {\n            rps[_domainName].push(rps[_domainName][rps[_domainName].length - 1]);\n            for (uint j = rps[_domainName].length - 1; j > i; j--) {\n                rps[_domainName][j] = rps[_domainName][j-1];\n            }\n            rps[_domainName][i] = rp;\n        }\n        caBalances[_issuer] += msg.value;\n        msg.sender.transfer(rpEscrows[rpHash].escrow);\n    }\n\n    /* function certPurchase(bytes32 certHash, bytes issuer) public payable {\n        certEscrows[certHash] = CertEscrow({issuer:issuer, escrow:msg.value});\n    }\n\n    function certIssue(bytes cert) public {\n        bytes32 certHash = keccak256(cert);\n        require(msg.sender == cas[certEscrows[certHash].issuer].payout);\n        msg.sender.transfer(rpEscrows[keccak256(cert)].escrow);\n    } */\n\n    function reportCommit (bytes32 com) public payable {\n        require(msg.value == m);\n        coms[com] = msg.sender;\n    }\n\n    function reportReveal (bytes cert, bytes secret) public {\n        require(coms[keccak256(cert, secret)] == msg.sender);\n        bytes memory dname = X509.getDName(cert);\n        while (rps[dname].length > 0) {\n            if (rps[dname][rps[dname].length-1].validTo < now || rps[dname][rps[dname].length-1].version != dcps[dname].version) {\n                rps[dname][rps[dname].length-1].reaction.expire.value(rpEscrowLimit)(cas[rps[dname][rps[dname].length-1].issuer].payout);\n                caBalances[rps[dname][rps[dname].length-1].issuer] -= rpEscrowLimit;\n                delete(rps[dname][rps[dname].length-1]);\n                rps[dname].length -= 1;\n                continue;\n            }\n            break;\n        }\n        if (rps[dname].length == 0 || crl[keccak256(cert)]) {\n            msg.sender.transfer(m);\n            return;\n        }\n        if (dcps[dname].checker.check(cert)) {\n            return;\n        }\n        bytes memory cname = X509.getCName(cert);\n        bool _internal = true;\n        if (cas[cname].validFrom == 0) {\n            _internal = false;\n        }\n        uint time = (rps[dname][rps[dname].length-1].validTo - now) * 100 / (rps[dname][rps[dname].length-1].validTo - rps[dname][rps[dname].length-1].validFrom);\n        rps[dname][rps[dname].length-1].reaction.trigger.value(rpEscrowLimit)(msg.sender, dcps[dname].payout,\n                                                                              cas[rps[dname][rps[dname].length-1].issuer].payout,\n                                                                              _internal, time);\n        caBalances[rps[dname][rps[dname].length-1].issuer] -= rpEscrowLimit;\n        delete(rps[dname][rps[dname].length-1]);\n        rps[dname].length -= 1;\n    }\n\n    function terminateRP (bytes32 rpHash, bytes domain) public returns (bool) {\n        require(dcps[domain].payout == msg.sender);\n        uint i;\n        for (i = 0; i < rps[domain].length; i++) {\n            bytes32 tmpRPHash = keccak256(rps[domain][i].domainName, rps[domain][i].issuer,\n                                          rps[domain][i].validFrom, rps[domain][i].validTo,\n                                          rps[domain][i].version, address(rps[domain][i].reaction));\n            if (tmpRPHash == rpHash) {\n                uint time = (rps[domain][i].validTo - now) * 100 / (rps[domain][i].validTo - rps[domain][i].validFrom);\n                rps[domain][i].reaction.terminate.value(rpEscrowLimit)(dcps[domain].payout, cas[rps[domain][i].issuer].payout, time);\n                break;\n            }\n        }\n        require(i != rps[domain].length);\n        for (uint j = i; j < rps[domain].length-1; j++) {\n            rps[domain][j] = rps[domain][j+1];\n        }\n        delete(rps[domain][rps[domain].length-1]);\n        rps[domain].length -= 1;\n    }\n    \n\n    function revoke (bytes cert) public payable {\n        require(msg.value == revokeFee);\n        bytes memory cname = X509.getCName(cert);\n        require(cas[cname].payout == msg.sender);\n        crl[keccak256(cert)] = true;\n    }\n\n    function isRevoked (bytes cert) public view returns (bool) {\n        return crl[keccak256(cert)];\n    }\n\n}\n",
  "sourcePath": "/Users/apple/Documents/GitHub/Ethereum-IKP/webtest/contracts/RIKP.sol",
  "compiler": {
    "name": "solc",
    "version": "0.4.23+commit.124ca40d.Emscripten.clang"
  },
  "schemaVersion": "2.0.0",
  "updatedAt": "2018-05-02T01:50:46.317Z"
}