{
  "contractName": "RP",
  "abi": [
    {
      "inputs": [
        {
          "name": "_ikp",
          "type": "address"
        }
      ],
      "payable": false,
      "stateMutability": "nonpayable",
      "type": "constructor"
    },
    {
      "constant": false,
      "inputs": [
        {
          "name": "detector",
          "type": "address"
        },
        {
          "name": "domain",
          "type": "address"
        },
        {
          "name": "issuerR",
          "type": "address"
        },
        {
          "name": "_internal",
          "type": "bool"
        },
        {
          "name": "time",
          "type": "uint256"
        }
      ],
      "name": "trigger",
      "outputs": [],
      "payable": true,
      "stateMutability": "payable",
      "type": "function"
    },
    {
      "constant": false,
      "inputs": [
        {
          "name": "domain",
          "type": "address"
        },
        {
          "name": "issuerR",
          "type": "address"
        },
        {
          "name": "time",
          "type": "uint256"
        }
      ],
      "name": "terminate",
      "outputs": [],
      "payable": true,
      "stateMutability": "payable",
      "type": "function"
    },
    {
      "constant": false,
      "inputs": [
        {
          "name": "issuerR",
          "type": "address"
        }
      ],
      "name": "expire",
      "outputs": [],
      "payable": true,
      "stateMutability": "payable",
      "type": "function"
    }
  ],
  "bytecode": "0x6080604052674563918244f40000600155674563918244f40000600255674563918244f400006003556729a2241af62c00006004556729a2241af62c000060055534801561004c57600080fd5b506040516020806106fd83398101806040528101908080519060200190929190505050806000806101000a81548173ffffffffffffffffffffffffffffffffffffffff021916908373ffffffffffffffffffffffffffffffffffffffff1602179055505061063e806100bf6000396000f300608060405260043610610057576000357c0100000000000000000000000000000000000000000000000000000000900463ffffffff168063409bc7be1461005c578063c8db233e146100bc578063e1017a9d146100f2575b600080fd5b6100ba600480360381019080803573ffffffffffffffffffffffffffffffffffffffff169060200190929190803573ffffffffffffffffffffffffffffffffffffffff1690602001909291908035906020019092919050505061017e565b005b6100f0600480360381019080803573ffffffffffffffffffffffffffffffffffffffff169060200190929190505050610296565b005b61017c600480360381019080803573ffffffffffffffffffffffffffffffffffffffff169060200190929190803573ffffffffffffffffffffffffffffffffffffffff169060200190929190803573ffffffffffffffffffffffffffffffffffffffff16906020019092919080351515906020019092919080359060200190929190505050610345565b005b60008060009054906101000a900473ffffffffffffffffffffffffffffffffffffffff1673ffffffffffffffffffffffffffffffffffffffff163373ffffffffffffffffffffffffffffffffffffffff161415156101db57600080fd5b60045460648360045460025403028115156101f257fe5b040190508373ffffffffffffffffffffffffffffffffffffffff166108fc829081150290604051600060405180830381858888f1935050505015801561023c573d6000803e3d6000fd5b508273ffffffffffffffffffffffffffffffffffffffff166108fc82600254039081150290604051600060405180830381858888f19350505050158015610287573d6000803e3d6000fd5b506102906105d8565b50505050565b6000809054906101000a900473ffffffffffffffffffffffffffffffffffffffff1673ffffffffffffffffffffffffffffffffffffffff163373ffffffffffffffffffffffffffffffffffffffff161415156102f157600080fd5b8073ffffffffffffffffffffffffffffffffffffffff166108fc6002549081150290604051600060405180830381858888f19350505050158015610339573d6000803e3d6000fd5b506103426105d8565b50565b60008060009054906101000a900473ffffffffffffffffffffffffffffffffffffffff1673ffffffffffffffffffffffffffffffffffffffff163373ffffffffffffffffffffffffffffffffffffffff161415156103a257600080fd5b60045460648360045460025403028115156103b957fe5b0401905082156104ec578473ffffffffffffffffffffffffffffffffffffffff166108fc6001549081150290604051600060405180830381858888f1935050505015801561040b573d6000803e3d6000fd5b508573ffffffffffffffffffffffffffffffffffffffff166108fc6003549081150290604051600060405180830381858888f19350505050158015610454573d6000803e3d6000fd5b508473ffffffffffffffffffffffffffffffffffffffff166108fc829081150290604051600060405180830381858888f1935050505015801561049b573d6000803e3d6000fd5b508373ffffffffffffffffffffffffffffffffffffffff166108fc82600254039081150290604051600060405180830381858888f193505050501580156104e6573d6000803e3d6000fd5b506105c8565b8573ffffffffffffffffffffffffffffffffffffffff166108fc6005549081150290604051600060405180830381858888f19350505050158015610534573d6000803e3d6000fd5b508473ffffffffffffffffffffffffffffffffffffffff166108fc829081150290604051600060405180830381858888f1935050505015801561057b573d6000803e3d6000fd5b508373ffffffffffffffffffffffffffffffffffffffff166108fc82600254039081150290604051600060405180830381858888f193505050501580156105c6573d6000803e3d6000fd5b505b6105d06105d8565b505050505050565b6000809054906101000a900473ffffffffffffffffffffffffffffffffffffffff1673ffffffffffffffffffffffffffffffffffffffff16ff00a165627a7a723058202a5a9f423d4820ad0b061be1ca34776b8bd2a6a10edd4417720f80b30b1c807a0029",
  "source": "pragma solidity ^0.4.19;\n\n\ncontract RP {\n\n    address private ikp;\n \n    uint256 a = 5 ether; // affected-domain payout\n    uint256 t = 5 ether; // termination payout\n    uint256 delta = 5 ether; // detection payout \\delta\n    uint256 tau = 3 ether; // mininum amount that Domain is guaranteed to receive \\tau\n    uint256 m = 3 ether; // if detector reports misbehavior by an unregistered CA, it receives a smaller payout\n\n\tconstructor (address _ikp) public {\n\t    ikp = _ikp;\n\t}\n\n\tfunction trigger (address detector, address domain, address issuerR, bool _internal, uint256 time) public payable {\n\t\trequire(msg.sender == ikp);\n\t\tuint terminationFeeDomain = (t - tau) * time / 100 + tau;\n\t\tif (_internal) {\n\t\t    domain.transfer(a); // affected-domain payout\n\t\t    detector.transfer(delta); // detection payout\n\t\t    domain.transfer(terminationFeeDomain); // termination payout\n\t\t    issuerR.transfer(t - terminationFeeDomain); // termination payout\n\t\t}\n\t\telse {\n\t\t    detector.transfer(m); // detection payout\n\t\t    domain.transfer(terminationFeeDomain); // termination payout\n\t\t    issuerR.transfer(t - terminationFeeDomain); // termination payout\n\t\t}\n\t\tkill();\n\t}\n\n    function terminate (address domain, address issuerR, uint256 time) public payable {\n    \trequire(msg.sender == ikp);\n\t\tuint terminationFeeDomain = (t - tau) * time / 100 + tau;\n\t\tdomain.transfer(terminationFeeDomain); // termination payout\n\t\tissuerR.transfer(t - terminationFeeDomain); // termination payout\n\t\tkill();\n    } \n\n    function expire (address issuerR) public payable {\n    \trequire(msg.sender == ikp);\n        issuerR.transfer(t); // termination payout\n        kill();\n    }\n\n    function kill () private {\n        selfdestruct(ikp);\n    }\n\n}",
  "sourcePath": "/Users/apple/Documents/GitHub/Ethereum-IKP/webtest/contracts/RP.sol",
  "compiler": {
    "name": "solc",
    "version": "0.4.23+commit.124ca40d.Emscripten.clang"
  },
  "schemaVersion": "2.0.0",
  "updatedAt": "2018-05-02T01:50:46.247Z"
}