{
  "contractName": "X509",
  "abi": [
    {
      "constant": true,
      "inputs": [
        {
          "name": "cert",
          "type": "bytes"
        }
      ],
      "name": "getDName",
      "outputs": [
        {
          "name": "",
          "type": "bytes"
        }
      ],
      "payable": false,
      "stateMutability": "pure",
      "type": "function"
    },
    {
      "constant": true,
      "inputs": [
        {
          "name": "cert",
          "type": "bytes"
        }
      ],
      "name": "getCName",
      "outputs": [
        {
          "name": "",
          "type": "bytes"
        }
      ],
      "payable": false,
      "stateMutability": "pure",
      "type": "function"
    }
  ],
  "bytecode": "0x611884610030600b82828239805160001a6073146000811461002057610022565bfe5b5030600052607381538281f3007300000000000000000000000000000000000000003014608060405260043610610063576000357c0100000000000000000000000000000000000000000000000000000000900463ffffffff16806354c3e21514610068578063d4d722b31461013d575b600080fd5b6100c2600480360381019080803590602001908201803590602001908080601f0160208091040260200160405190810160405280939291908181526020018383808284378201915050505050509192919290505050610212565b6040518080602001828103825283818151815260200191508051906020019080838360005b838110156101025780820151818401526020810190506100e7565b50505050905090810190601f16801561012f5780820380516001836020036101000a031916815260200191505b509250505060405180910390f35b610197600480360381019080803590602001908201803590602001908080601f01602080910402602001604051908101604052809392919081815260200183838082843782019150505050505091929192905050506103e5565b6040518080602001828103825283818151815260200191508051906020019080838360005b838110156101d75780820151818401526020810190506101bc565b50505050905090810190601f1680156102045780820380516001836020036101000a031916815260200191505b509250505060405180910390f35b606080606061021f611835565b6060806060806000806102396102348c6105c5565b6105c5565b985061024e6102498a6006610adb565b6105c5565b975060a060405190810160405280600660ff168152602001600360ff168152602001605560ff168152602001600460ff168152602001600360ff16815250965061029788611037565b80965081975050505b6000865111156103c9576102c36102be6102b9886105c5565b6105c5565b611037565b809450819550505060019150600090505b600581101561038f5786816005811015156102eb57fe5b602002015160ff16848281518110151561030157fe5b9060200101517f010000000000000000000000000000000000000000000000000000000000000090047f0100000000000000000000000000000000000000000000000000000000000000027f0100000000000000000000000000000000000000000000000000000000000000900460ff16141515610382576000915061038f565b80806001019150506102d4565b6005845114158061039e575081155b156103b9576103ac85611037565b80965081975050506102a0565b6103c2836105c5565b99506103d7565b600015156103d657600080fd5b5b505050505050505050919050565b60608060606103f2611835565b606080600060608060008061040e6104098d6105c5565b6105c5565b995061042361041e8b6004610adb565b6105c5565b985060a060405190810160405280600660ff168152602001600360ff168152602001605560ff168152602001600460ff168152602001600360ff16815250975061046c89611037565b8097508198505050600094505b6000875111156105a85761049c610497610492896105c5565b6105c5565b611037565b809450819550505060019150600090505b60058110156105685787816005811015156104c457fe5b602002015160ff1684828151811015156104da57fe5b9060200101517f010000000000000000000000000000000000000000000000000000000000000090047f0100000000000000000000000000000000000000000000000000000000000000027f0100000000000000000000000000000000000000000000000000000000000000900460ff1614151561055b5760009150610568565b80806001019150506104ad565b60058451141580610577575081155b156105985761058586611037565b8097508198505050600185019450610479565b6105a1836105c5565b9a506105b6565b600015156105b557600080fd5b5b50505050505050505050919050565b60606000806000600285511115156105dc57600080fd5b60807f01000000000000000000000000000000000000000000000000000000000000000285600181518110151561060f57fe5b9060200101517f010000000000000000000000000000000000000000000000000000000000000090047f0100000000000000000000000000000000000000000000000000000000000000027effffffffffffffffffffffffffffffffffffffffffffffffffffffffffffff1916111561076a57608085600181518110151561069357fe5b9060200101517f010000000000000000000000000000000000000000000000000000000000000090047f0100000000000000000000000000000000000000000000000000000000000000027f0100000000000000000000000000000000000000000000000000000000000000900403925082600201855111151561071657600080fd5b61073461072f600285886116b19092919063ffffffff16565b61173e565b915081836002010185511015151561074b57600080fd5b6107638360020183876116b19092919063ffffffff16565b9350610ad3565b60807f01000000000000000000000000000000000000000000000000000000000000000285600181518110151561079d57fe5b9060200101517f010000000000000000000000000000000000000000000000000000000000000090047f0100000000000000000000000000000000000000000000000000000000000000027effffffffffffffffffffffffffffffffffffffffffffffffffffffffffffff191610156109385784600181518110151561081f57fe5b9060200101517f010000000000000000000000000000000000000000000000000000000000000090047f0100000000000000000000000000000000000000000000000000000000000000027f0100000000000000000000000000000000000000000000000000000000000000900460020185511015151561089f57600080fd5b61093160028660018151811015156108b357fe5b9060200101517f010000000000000000000000000000000000000000000000000000000000000090047f0100000000000000000000000000000000000000000000000000000000000000027f01000000000000000000000000000000000000000000000000000000000000009004876116b19092919063ffffffff16565b9350610ad3565b600290505b6001855103811015610ac55760007f010000000000000000000000000000000000000000000000000000000000000002858281518110151561097b57fe5b9060200101517f010000000000000000000000000000000000000000000000000000000000000090047f0100000000000000000000000000000000000000000000000000000000000000027effffffffffffffffffffffffffffffffffffffffffffffffffffffffffffff1916148015610a94575060007f0100000000000000000000000000000000000000000000000000000000000000028560018301815181101515610a2557fe5b9060200101517f010000000000000000000000000000000000000000000000000000000000000090047f0100000000000000000000000000000000000000000000000000000000000000027effffffffffffffffffffffffffffffffffffffffffffffffffffffffffffff1916145b15610ab857610ab16002808303876116b19092919063ffffffff16565b9350610ad3565b808060010191505061093d565b60001515610ad257600080fd5b5b505050919050565b6060600080600080600080600080965060009550600094505b888510156110115760018903851415610b0b578695505b600287018a51111515610b1d57600080fd5b60807f0100000000000000000000000000000000000000000000000000000000000000028a60018901815181101515610b5257fe5b9060200101517f010000000000000000000000000000000000000000000000000000000000000090047f0100000000000000000000000000000000000000000000000000000000000000027effffffffffffffffffffffffffffffffffffffffffffffffffffffffffffff19161115610ca55760808a60018901815181101515610bd857fe5b9060200101517f010000000000000000000000000000000000000000000000000000000000000090047f0100000000000000000000000000000000000000000000000000000000000000027f010000000000000000000000000000000000000000000000000000000000000090040393508360028801018a51111515610c5d57600080fd5b610c7d610c7860028901868d6116b19092919063ffffffff16565b61173e565b925082846002890101018a5110151515610c9657600080fd5b82846002010187019650611004565b60807f0100000000000000000000000000000000000000000000000000000000000000028a60018901815181101515610cda57fe5b9060200101517f010000000000000000000000000000000000000000000000000000000000000090047f0100000000000000000000000000000000000000000000000000000000000000027effffffffffffffffffffffffffffffffffffffffffffffffffffffffffffff19161015610e6b578960018801815181101515610d5e57fe5b9060200101517f010000000000000000000000000000000000000000000000000000000000000090047f0100000000000000000000000000000000000000000000000000000000000000027f0100000000000000000000000000000000000000000000000000000000000000900460028801018a5110151515610de057600080fd5b8960018801815181101515610df157fe5b9060200101517f010000000000000000000000000000000000000000000000000000000000000090047f0100000000000000000000000000000000000000000000000000000000000000027f0100000000000000000000000000000000000000000000000000000000000000900460020187019650611003565b600191506002870190505b60018a5103811015610fee5760007f0100000000000000000000000000000000000000000000000000000000000000028a82815181101515610eb457fe5b9060200101517f010000000000000000000000000000000000000000000000000000000000000090047f0100000000000000000000000000000000000000000000000000000000000000027effffffffffffffffffffffffffffffffffffffffffffffffffffffffffffff1916148015610fcd575060007f0100000000000000000000000000000000000000000000000000000000000000028a60018301815181101515610f5e57fe5b9060200101517f010000000000000000000000000000000000000000000000000000000000000090047f0100000000000000000000000000000000000000000000000000000000000000027effffffffffffffffffffffffffffffffffffffffffffffffffffffffffffff1916145b15610fe15760028101965060009150610fee565b8080600101915050610e76565b8115611002576000151561100157600080fd5b5b5b5b8480600101955050610af4565b611028868789038c6116b19092919063ffffffff16565b97505050505050505092915050565b60608060008060006002865111151561104f57600080fd5b60807f01000000000000000000000000000000000000000000000000000000000000000286600181518110151561108257fe5b9060200101517f010000000000000000000000000000000000000000000000000000000000000090047f0100000000000000000000000000000000000000000000000000000000000000027effffffffffffffffffffffffffffffffffffffffffffffffffffffffffffff1916111561120457608086600181518110151561110657fe5b9060200101517f010000000000000000000000000000000000000000000000000000000000000090047f0100000000000000000000000000000000000000000000000000000000000000027f0100000000000000000000000000000000000000000000000000000000000000900403925082600201865111151561118957600080fd5b6111a76111a2600285896116b19092919063ffffffff16565b61173e565b91508183600201018651101515156111be57600080fd5b6111d96000838560020101886116b19092919063ffffffff16565b6111fb838560020101848660020101895103896116b19092919063ffffffff16565b945094506116a9565b60807f01000000000000000000000000000000000000000000000000000000000000000286600181518110151561123757fe5b9060200101517f010000000000000000000000000000000000000000000000000000000000000090047f0100000000000000000000000000000000000000000000000000000000000000027effffffffffffffffffffffffffffffffffffffffffffffffffffffffffffff191610156114ed578560018151811015156112b957fe5b9060200101517f010000000000000000000000000000000000000000000000000000000000000090047f0100000000000000000000000000000000000000000000000000000000000000027f0100000000000000000000000000000000000000000000000000000000000000900460020186511015151561133957600080fd5b6113ce600087600181518110151561134d57fe5b9060200101517f010000000000000000000000000000000000000000000000000000000000000090047f0100000000000000000000000000000000000000000000000000000000000000027f01000000000000000000000000000000000000000000000000000000000000009004600201886116b19092919063ffffffff16565b6114e48760018151811015156113e057fe5b9060200101517f010000000000000000000000000000000000000000000000000000000000000090047f0100000000000000000000000000000000000000000000000000000000000000027f0100000000000000000000000000000000000000000000000000000000000000900460020188600181518110151561146057fe5b9060200101517f010000000000000000000000000000000000000000000000000000000000000090047f0100000000000000000000000000000000000000000000000000000000000000027f01000000000000000000000000000000000000000000000000000000000000009004600201895103896116b19092919063ffffffff16565b945094506116a9565b600290505b600186510381101561169b5760007f010000000000000000000000000000000000000000000000000000000000000002868281518110151561153057fe5b9060200101517f010000000000000000000000000000000000000000000000000000000000000090047f0100000000000000000000000000000000000000000000000000000000000000027effffffffffffffffffffffffffffffffffffffffffffffffffffffffffffff1916148015611649575060007f01000000000000000000000000000000000000000000000000000000000000000286600183018151811015156115da57fe5b9060200101517f010000000000000000000000000000000000000000000000000000000000000090047f0100000000000000000000000000000000000000000000000000000000000000027effffffffffffffffffffffffffffffffffffffffffffffffffffffffffffff1916145b1561168e57611667600060028301886116b19092919063ffffffff16565b6116856002830160028401895103896116b19092919063ffffffff16565b945094506116a9565b80806001019150506114f2565b600015156116a857600080fd5b5b505050915091565b6060808284018551101515156116c657600080fd5b8215600081146116e157604051915060208201604052611732565b6040519150601f8416801560200281840101858101878315602002848b0101015b8183101561171f5780518352602083019250602081019050611702565b50868552601f19601f8301166040525050505b50809150509392505050565b6000806000602084511115151561175457600080fd5b600090505b8351811015611827576008818551602003010260ff7f010000000000000000000000000000000000000000000000000000000000000002858381518110151561179e57fe5b9060200101517f010000000000000000000000000000000000000000000000000000000000000090047f010000000000000000000000000000000000000000000000000000000000000002167effffffffffffffffffffffffffffffffffffffffffffffffffffffffffffff1916600019169060020a9004821791508080600101915050611759565b816001900492505050919050565b60a0604051908101604052806005906020820280388339808201915050905050905600a165627a7a72305820b8a203ef304e4995cf7400bc77ebd1d27ae27401d0a0dab42e8b06cca720df910029",
  "source": "pragma solidity ^0.4.19;\n\n\nimport \"./BytesLib.sol\";\n\nlibrary X509 {\n\n    using BytesLib for bytes;\n\n    function getDName (bytes cert) public pure returns (bytes) {\n        bytes memory certSeq = getValue(getValue(cert));\n        bytes memory subjectName = getValue(tlvSeqAccess(certSeq, 6));\n        uint8[5] memory commonName = [0x06, 0x03, 0x55, 0x04, 0x03];\n        bytes memory nameSeq;\n        bytes memory rest;\n        (nameSeq, rest) = popTLV(subjectName);\n        while (nameSeq.length > 0) {\n            bytes memory oid;\n            bytes memory str;\n            (oid, str) = popTLV(getValue(getValue(nameSeq)));\n            bool ok = true;\n            for (uint i = 0; i < 5; i++) {\n                if (uint8(oid[i]) != commonName[i]) {\n                    ok = false;\n                    break;\n                }\n            }\n            if (oid.length != 5 || !ok) {\n                (nameSeq, rest) = popTLV(rest);\n                continue;\n            }\n            return getValue(str);\n        }\n        require(false);\n    }\n\n    function getCName (bytes cert) public pure returns (bytes) {\n        bytes memory certSeq = getValue(getValue(cert));\n        bytes memory issuerName = getValue(tlvSeqAccess(certSeq, 4));\n        uint8[5] memory commonName = [0x06, 0x03, 0x55, 0x04, 0x03];\n        bytes memory nameSeq;\n        bytes memory rest;\n        (nameSeq, rest) = popTLV(issuerName);\n        uint j = 0;\n        while (nameSeq.length > 0) {\n            bytes memory oid;\n            bytes memory str;\n            (oid, str) = popTLV(getValue(getValue(nameSeq)));\n            bool ok = true;\n            for (uint i = 0; i < 5; i++) {\n                if (uint8(oid[i]) != commonName[i]) {\n                    ok = false;\n                    break;\n                }\n            }\n            if (oid.length != 5 || !ok) {\n                (nameSeq, rest) = popTLV(rest);\n                j += 1;\n                continue;\n            }\n            return getValue(str);\n        }\n        require(false);\n    }\n\n    function tlvSeqAccess (bytes tlvs, uint n) private pure returns (bytes) {\n        uint pos = 0;\n        uint st = 0;\n        for (uint i = 0; i < n; i++) {\n            if (i == n-1) {\n                st = pos;\n            }\n            require(tlvs.length > pos + 2);\n            if (tlvs[pos+1] > 0x80) {\n                uint lenlen = uint(tlvs[pos+1]) - 0x80;\n                require(tlvs.length > pos + 2 + lenlen);\n                uint len = bytesToUint(tlvs.slice(pos+2, lenlen));\n                require(tlvs.length >= pos + 2 + lenlen + len);\n                pos += 2 + lenlen + len;\n            } else if (tlvs[pos+1] < 0x80) {\n                require(tlvs.length >= pos + 2 + uint(tlvs[pos+1]));\n                pos += 2 + uint(tlvs[pos+1]);\n            } else {\n                bool bad = true;\n                for (uint j = pos + 2; j < tlvs.length-1; j++) {\n                    if (tlvs[j] == 0x00 && tlvs[j+1] == 0x00) {\n                        pos = j + 2;\n                        bad = false;\n                        break;\n                    }\n                }\n                if (bad) {\n                    require(false);\n                }\n            }\n        }\n        return tlvs.slice(st, pos-st);\n    }\n\n    function popTLV (bytes tlvs) private pure returns (bytes, bytes) {\n        require(tlvs.length > 2);\n        if (tlvs[1] > 0x80) {\n            uint lenlen = uint(tlvs[1]) - 0x80;\n            require(tlvs.length > 2 + lenlen);\n            uint len = bytesToUint(tlvs.slice(2, lenlen));\n            require(tlvs.length >= 2 + lenlen + len);\n            return (tlvs.slice(0, 2+lenlen+len),\n                    tlvs.slice(2+lenlen+len, tlvs.length-(2+lenlen+len)));\n        }\n        if (tlvs[1] < 0x80) {\n            require(tlvs.length >= 2 + uint(tlvs[1]));\n            return (tlvs.slice(0, 2+uint(tlvs[1])),\n                    tlvs.slice(2+uint(tlvs[1]), tlvs.length-(2+uint(tlvs[1]))));\n        }\n        for (uint i = 2; i < tlvs.length-1; i++) {\n            if (tlvs[i] == 0x00 && tlvs[i+1] == 0x00) {\n                return (tlvs.slice(0, i+2),\n                        tlvs.slice(i+2, tlvs.length-(i+2)));\n            }\n        }\n        require(false);\n    }\n\n    function getValue (bytes tlv) private pure returns (bytes) {\n        require(tlv.length > 2);\n        if (tlv[1] > 0x80) {\n            uint lenlen = uint(tlv[1]) - 0x80;\n            require(tlv.length > 2 + lenlen);\n            uint len = bytesToUint(tlv.slice(2, lenlen));\n            require(tlv.length >= 2 + lenlen + len);\n            return tlv.slice(2+lenlen, len);\n        }\n        if (tlv[1] < 0x80) {\n            require(tlv.length >= 2 + uint(tlv[1]));\n            return tlv.slice(2, uint(tlv[1]));\n        }\n        for (uint i = 2; i < tlv.length-1; i++) {\n            if (tlv[i] == 0x00 && tlv[i+1] == 0x00) {\n                return tlv.slice(2, i-2);\n            }\n        }\n        require(false);\n    }\n\n    function bytesToUint (bytes b) private pure returns (uint u) {\n        require(b.length <= 32);\n        bytes32 tmp;\n        for (uint i = 0; i < b.length; i++) {\n            tmp |= bytes32(b[i] & 0xFF) >> ((32-b.length+i) * 8);\n        }\n        return uint(tmp);\n    }\n\n}\n\ncontract DCPChecker {\n    function check (bytes cert) public view returns (bool);\n}\n\ncontract RPReaction {\n    function trigger (address detector, address domain, address issuerR, bool _internal, uint256 time) public payable;\n    function terminate (address domain, address issuerR, uint256 time) public payable;\n    function expire (address issuerR) public payable;\n}",
  "sourcePath": "/Users/apple/Documents/GitHub/Ethereum-IKP/webtest/contracts/X509.sol",
  "compiler": {
    "name": "solc",
    "version": "0.4.23+commit.124ca40d.Emscripten.clang"
  },
  "schemaVersion": "2.0.0",
  "updatedAt": "2018-05-01T21:06:13.775Z"
}